{"abi":[{"type":"function","name":"extractAddress","inputs":[{"name":"input","type":"bytes32","internalType":"bytes32"}],"outputs":[{"name":"extractedAddress","type":"address","internalType":"address"}],"stateMutability":"pure"}],"bytecode":{"object":"0x60808060405234601957610464908161001e823930815050f35b5f80fdfe60806040526004361015610011575f80fd5b5f3560e01c63637083f914610024575f80fd5b60203660031901126101095760043560a05260206080526100456040610121565b610056610050610187565b516102ff565b60208151910120610065610187565b60208151910120145f146100ad576100a961008f61008a610084610187565b5161038c565b6103e0565b6040516001600160a01b0390911681529081906020820190565b0390f35b6100b56101c1565b156100cd576100a96100c861008a610344565b61008f565b60405162461bcd60e51b8152602060048201526014602482015273125b9d985b1a59081a5b9c1d5d08199bdc9b585d60621b6044820152606490fd5b5f80fd5b634e487b7160e01b5f52604160045260245ffd5b601f80199101166080016080811067ffffffffffffffff82111761014457604052565b61010d565b90601f8019910116810190811067ffffffffffffffff82111761014457604052565b67ffffffffffffffff811161014457601f01601f191660200190565b60405190610196604083610149565b60088252675f435553544f4d5f60c01b6020830152565b634e487b7160e01b5f52601160045260245ffd5b608051906101cd610187565b518203918211610296576101df610187565b51608051818401908185116102965710610261576101fc816102a8565b905f5b818110610226575050805160209091012090915061021b610187565b602081519101201490565b8061024e6102406102396001948961029b565b60806102da565b516001600160f81b03191690565b5f1a61025a82866102da565b53016101ff565b60405162461bcd60e51b815260206004820152600d60248201526c496e76616c696420736c69636560981b6044820152606490fd5b6101ad565b9190820180921161029657565b906102b28261016b565b6102bf6040519182610149565b82815280926102d0601f199161016b565b0190602036910137565b9081518110156102eb570160200190565b634e487b7160e01b5f52603260045260245ffd5b806080511061026157610311816102a8565b905f5b81811061032057505090565b8061033161024060019360806102da565b5f1a61033d82866102da565b5301610314565b6014608051106102615761035860146102a8565b5f5b60148110610366575090565b806103796102406102396001945f61029b565b5f1a61038582856102da565b530161035a565b9060805160148301908184116102965710610261576103ab60146102a8565b5f5b601481106103ba57509150565b806103cd6102406102396001948861029b565b5f1a6103d982856102da565b53016103ad565b60148151036103f0576014015190565b60405162461bcd60e51b8152602060048201526016602482015275092dcecc2d8d2c840c2c8c8e4cae6e640d8cadccee8d60531b6044820152606490fdfea264697066735822122003145e20d541a8018273b67ee72c5ec7f33640598b59e53e4333b93768bec03c64736f6c634300081b0033","linkReferences":{}},"methodIdentifiers":{"extractAddress(bytes32)":"637083f9"},"id":57}