{"abi":[{"type":"constructor","inputs":[{"name":"factory_","type":"address","internalType":"address"}],"stateMutability":"nonpayable"},{"type":"function","name":"getCapabilities","inputs":[{"name":"","type":"bytes32","internalType":"bytes32"},{"name":"","type":"address","internalType":"address"},{"name":"","type":"address","internalType":"address"}],"outputs":[{"name":"capabilities","type":"uint8[]","internalType":"enum ISwapAdapterTypes.Capability[]"}],"stateMutability":"pure"},{"type":"function","name":"getLimits","inputs":[{"name":"poolId","type":"bytes32","internalType":"bytes32"},{"name":"sellToken","type":"address","internalType":"address"},{"name":"buyToken","type":"address","internalType":"address"}],"outputs":[{"name":"limits","type":"uint256[]","internalType":"uint256[]"}],"stateMutability":"view"},{"type":"function","name":"getPoolIds","inputs":[{"name":"offset","type":"uint256","internalType":"uint256"},{"name":"limit","type":"uint256","internalType":"uint256"}],"outputs":[{"name":"ids","type":"bytes32[]","internalType":"bytes32[]"}],"stateMutability":"view"},{"type":"function","name":"getTokens","inputs":[{"name":"poolId","type":"bytes32","internalType":"bytes32"}],"outputs":[{"name":"tokens","type":"address[]","internalType":"address[]"}],"stateMutability":"view"},{"type":"function","name":"price","inputs":[{"name":"poolId","type":"bytes32","internalType":"bytes32"},{"name":"sellToken","type":"address","internalType":"address"},{"name":"buyToken","type":"address","internalType":"address"},{"name":"specifiedAmounts","type":"uint256[]","internalType":"uint256[]"}],"outputs":[{"name":"prices","type":"tuple[]","internalType":"struct ISwapAdapterTypes.Fraction[]","components":[{"name":"numerator","type":"uint256","internalType":"uint256"},{"name":"denominator","type":"uint256","internalType":"uint256"}]}],"stateMutability":"view"},{"type":"function","name":"swap","inputs":[{"name":"poolId","type":"bytes32","internalType":"bytes32"},{"name":"sellToken","type":"address","internalType":"address"},{"name":"buyToken","type":"address","internalType":"address"},{"name":"side","type":"uint8","internalType":"enum ISwapAdapterTypes.OrderSide"},{"name":"specifiedAmount","type":"uint256","internalType":"uint256"}],"outputs":[{"name":"trade","type":"tuple","internalType":"struct ISwapAdapterTypes.Trade","components":[{"name":"calculatedAmount","type":"uint256","internalType":"uint256"},{"name":"gasUsed","type":"uint256","internalType":"uint256"},{"name":"price","type":"tuple","internalType":"struct ISwapAdapterTypes.Fraction","components":[{"name":"numerator","type":"uint256","internalType":"uint256"},{"name":"denominator","type":"uint256","internalType":"uint256"}]}]}],"stateMutability":"nonpayable"},{"type":"error","name":"AddressEmptyCode","inputs":[{"name":"target","type":"address","internalType":"address"}]},{"type":"error","name":"FailedCall","inputs":[]},{"type":"error","name":"InsufficientBalance","inputs":[{"name":"balance","type":"uint256","internalType":"uint256"},{"name":"needed","type":"uint256","internalType":"uint256"}]},{"type":"error","name":"LimitExceeded","inputs":[{"name":"limit","type":"uint256","internalType":"uint256"}]},{"type":"error","name":"NotImplemented","inputs":[{"name":"reason","type":"string","internalType":"string"}]},{"type":"error","name":"SafeERC20FailedOperation","inputs":[{"name":"token","type":"address","internalType":"address"}]},{"type":"error","name":"Unavailable","inputs":[{"name":"reason","type":"string","internalType":"string"}]}],"bytecode":{"object":"0x60a034606857601f61124a38819003918201601f19168301916001600160401b03831184841017606c57808492602094604052833981010312606857516001600160a01b038116908190036068576080526040516111c990816100818239608051816106930152f35b5f80fd5b634e487b7160e01b5f52604160045260245ffdfe60806040526004361015610011575f80fd5b5f3560e01c806323eeca011461066457806348bd7dfd1461058d5780638307c65514610527578063a9270fbe146103fe578063aad6e488146101ae5763ecbbc0331461005b575f80fd5b346101aa5760203660031901126101aa5760405161007a60608261090d565b6002815260208101604036823760043560601c604051630dfe168160e01b8152602081600481855afa918215610182576004926020925f9161018d575b506100c186610994565b6001600160a01b03909116905260405163d21220a760e01b815292839182905afa908115610182575f91610153575b506100fc8392936109a1565b6001600160a01b0390911690526040805160208082529251928101839052928392918301915f5b818110610131575050500390f35b82516001600160a01b0316845285945060209384019390920191600101610123565b610175915060203d60201161017b575b61016d818361090d565b810190610975565b5f6100f0565b503d610163565b6040513d5f823e3d90fd5b6101a49150833d851161017b5761016d818361090d565b5f6100b7565b5f80fd5b346101aa5760803660031901126101aa576101c7610877565b6101cf61088d565b6064359067ffffffffffffffff82116101aa57366023830112156101aa578160040135916101fc8361092f565b9261020a604051948561090d565b8084526024602085019160051b830101913683116101aa57602401905b8282106103ee5750505081519261023d8461092f565b9361024b604051958661090d565b80855261025a601f199161092f565b015f5b8181106103cb57506004926060928435841c92506001600160a01b039182169116101561037f57604051630240bc6b60e21b815292839182905afa8015610182575f915f9161034d575b505b5f5b83518110156102fc57806102e06102c4600193876109b1565b516001600160701b038516906001600160701b03871690610e3b565b6102ea82886109b1565b526102f581876109b1565b50016102ab565b846040518091602082016020835281518091526020604084019201905f5b818110610328575050500390f35b825180518552602090810151818601528695506040909401939092019160010161031a565b9050610371915060603d606011610378575b610369818361090d565b8101906109f1565b50846102a7565b503d61035f565b604051630240bc6b60e21b815292839182905afa8015610182575f915f916103a9575b50906102a9565b90506103c4915060603d60601161037857610369818361090d565b50846103a2565b6020906040516103da816108dd565b5f81525f838201528282890101520161025d565b8135815260209182019101610227565b346101aa57600461040e366108a3565b6040519391606090610420828761090d565b60028652816020870195601f198201368837604051630240bc6b60e21b81529586918290841c5afa91821561018257600a945f915f946104fa575b50506001600160701b03928316939216916001600160a01b03908116911610156104db5782900461048b85610994565b5204610496836109a1565b52905b604051918291602083019060208452518091526040830191905f5b8181106104c2575050500390f35b82518452859450602093840193909201916001016104b4565b908290046104e885610994565b52046104f3836109a1565b5290610499565b6001600160701b039450849250908161051e92903d1061037857610369818361090d565b5093909161045b565b346101aa5760a03660031901126101aa57610540610877565b61054861088d565b6064359160028310156101aa576080926105689260843592600435610a27565b6020604080519280518452828101518385015201518051604084015201516060820152f35b346101aa5761059b366108a3565b5050506040516105ac60a08261090d565b6004815260208101608036823760016105c483610994565b5260026105d0836109a1565b5281516002101561065057600360608301528151600310156106505760096080830152604051906020820192602083525180935260408201905f935b8085106106195783830384f35b9091825190600a82101561063c576020816001938293520193019401939061060c565b634e487b7160e01b5f52602160045260245ffd5b634e487b7160e01b5f52603260045260245ffd5b346101aa5760403660031901126101aa5760043561068460243582610947565b60405163574f2ba360e01b81527f00000000000000000000000000000000000000000000000000000000000000006001600160a01b0316929190602081600481875afa80156101825783915f91610842575b5082116107de575b6106e791610968565b6107096106f38261092f565b91610701604051938461090d565b80835261092f565b602082019290601f19013684375f5b825181101561079a5761072b8183610947565b9060405191631e3dd18b60e01b83526004830152602082602481895afa8015610182576001925f9161077c575b5060601b6bffffffffffffffffffffffff191661077582866109b1565b5201610718565b610794915060203d811161017b5761016d818361090d565b87610758565b8383604051918291602083019060208452518091526040830191905f5b8181106107c5575050500390f35b82518452859450602093840193909201916001016107b7565b505060405163574f2ba360e01b8152602081600481865afa80156101825782905f9061080c575b91506106de565b50506020813d60201161083a575b816108276020938361090d565b810103126101aa57816106e79151610805565b3d915061081a565b9150506020813d60201161086f575b8161085e6020938361090d565b810103126101aa57829051856106d6565b3d9150610851565b602435906001600160a01b03821682036101aa57565b604435906001600160a01b03821682036101aa57565b60609060031901126101aa57600435906024356001600160a01b03811681036101aa57906044356001600160a01b03811681036101aa5790565b6040810190811067ffffffffffffffff8211176108f957604052565b634e487b7160e01b5f52604160045260245ffd5b90601f8019910116810190811067ffffffffffffffff8211176108f957604052565b67ffffffffffffffff81116108f95760051b60200190565b9190820180921161095457565b634e487b7160e01b5f52601160045260245ffd5b9190820391821161095457565b908160209103126101aa57516001600160a01b03811681036101aa5790565b8051156106505760200190565b8051600110156106505760400190565b80518210156106505760209160051b010190565b604051906109d2826108dd565b5f6020838281520152565b51906001600160701b03821682036101aa57565b908160609103126101aa57610a05816109dd565b916040610a14602084016109dd565b92015163ffffffff811681036101aa5790565b9493905f604051966060880188811067ffffffffffffffff8211176108f9576040525f88525f6020890152604051610a5e816108dd565b5f81525f60208201526040890152878415610cda575060601c946001600160a01b03948516948316948510948515610c8557604051630240bc6b60e21b815296606088600481845afa8015610182575f985f91610c5f575b5097965b5a93600281101561063c57898989921598895f14610c445750509083610af66001600160701b03610afe94166001600160701b038d16846110d6565b953390610fe6565b15610bd057803b15610bcc5760405163022c0d9f60e01b81525f6004820181905260248201849052336044830152608060648301526084820152908490829060a490829084905af18015610bc157908491610ba8575b505090610b66915b89525b5a90610968565b60208801525015610b8e576001600160701b0380610b879416921690610e3b565b6040830152565b50610b87916001600160701b038086519216921690610e3b565b81610bb29161090d565b610bbd57825f610b54565b8280fd5b6040513d86823e3d90fd5b8380fd5b80939291933b156101aa5760405163022c0d9f60e01b8152600481018590525f6024820181905233604483015260806064830152608482018190529091829060a490829084905af1801561018257610c2e575b50610b669192610b5c565b610b6692505f610c3d9161090d565b5f91610c23565b610b66979650610c58959491929394610d02565b8952610b5f565b9050610c7b91985060603d60601161037857610369818361090d565b509790975f610ab6565b604051630240bc6b60e21b81529596606087600481845afa8015610182575f975f91610cb4575b509697610aba565b9050610cd091975060603d60601161037857610369818361090d565b509690965f610cac565b9750505050505050565b8115610cee570490565b634e487b7160e01b5f52601260045260245ffd5b94919092610d1e906001600160701b03805f9716911684610f01565b948515610e1e576001600160a01b0390811693610d419187918691339116610fe6565b15610dbd57813b15610bbd5760405163022c0d9f60e01b81525f600482018190526024820192909252336044820152608060648201526084810191909152908290829060a490829084905af18015610db257610d9c57505090565b610da782809261090d565b610daf575090565b80fd5b6040513d84823e3d90fd5b9150803b156101aa5760405163022c0d9f60e01b815260048101929092525f60248301819052336044840152608060648401526084830181905290829060a490829084905af1801561018257610e11575090565b5f610e1b9161090d565b90565b5050505050505f90565b8181029291811591840414171561095457565b919091610e466109c5565b5082158015610ef9575b610eb357610e6c82610e66610e729486856110d6565b90610968565b92610947565b6103e58202918083046103e51490151715610954576103e88102908082046103e814901517156109545760405191610ea9836108dd565b8252602082015290565b60405163643c60f360e01b815260206004820152601d60248201527f4174206c65617374206f6e652072657365727665206973207a65726f210000006044820152606490fd5b508115610e50565b91908215610fdf578015610fa5578115610f6a5782610f1f91610e28565b916103e88302928084046103e8149015171561095457610f3e91610968565b6103e58102908082046103e5149015171561095457610f5c91610ce4565b600181018091116109545790565b60405163643c60f360e01b8152602060048201526012602482015271726573657276654f7574206973207a65726f60701b6044820152606490fd5b60405163643c60f360e01b815260206004820152601160248201527072657365727665496e206973207a65726f60781b6044820152606490fd5b5050505f90565b6040516323b872dd60e01b602082019081526001600160a01b039384166024830152939092166044830152606480830194909452928152915f91829161102d60848661090d565b60018060a01b031693519082855af13d156110ca573d67ffffffffffffffff81116108f95761107e916040519161106e6020601f19601f840116018461090d565b82523d5f602084013e5b83611135565b80519081151591826110a6575b50506110945750565b635274afe760e01b5f5260045260245ffd5b81925090602091810103126101aa57602001518015908115036101aa575f8061108b565b61107e90606090611078565b91908215610fdf5780159182801561112d575b610eb3576103e584029384046103e503610954576111079084610e28565b916103e882029182046103e814171561095457610e1b9261112791610947565b90610ce4565b5080156110e9565b90611159575080511561114a57805190602001fd5b63d6bda27560e01b5f5260045ffd5b8151158061118a575b61116a575090565b639996b31560e01b5f9081526001600160a01b0391909116600452602490fd5b50803b1561116256fea2646970667358221220b2e7f8fbccc13285e349f8b239b13d9153a3383fc98985279c83c306cd63f78464736f6c634300081b0033","linkReferences":{}},"methodIdentifiers":{"getCapabilities(bytes32,address,address)":"48bd7dfd","getLimits(bytes32,address,address)":"a9270fbe","getPoolIds(uint256,uint256)":"23eeca01","getTokens(bytes32)":"ecbbc033","price(bytes32,address,address,uint256[])":"aad6e488","swap(bytes32,address,address,uint8,uint256)":"8307c655"},"id":64}