{"abi":[{"type":"constructor","inputs":[{"name":"factory_","type":"address","internalType":"address"},{"name":"_quoter","type":"address","internalType":"address"}],"stateMutability":"nonpayable"},{"type":"receive","stateMutability":"payable"},{"type":"function","name":"factory","inputs":[],"outputs":[{"name":"","type":"address","internalType":"contract IMaverickV2Factory"}],"stateMutability":"view"},{"type":"function","name":"getCapabilities","inputs":[{"name":"","type":"bytes32","internalType":"bytes32"},{"name":"","type":"address","internalType":"address"},{"name":"","type":"address","internalType":"address"}],"outputs":[{"name":"capabilities","type":"uint8[]","internalType":"enum ISwapAdapterTypes.Capability[]"}],"stateMutability":"pure"},{"type":"function","name":"getLimits","inputs":[{"name":"poolId","type":"bytes32","internalType":"bytes32"},{"name":"sellToken","type":"address","internalType":"address"},{"name":"buyToken","type":"address","internalType":"address"}],"outputs":[{"name":"limits","type":"uint256[]","internalType":"uint256[]"}],"stateMutability":"view"},{"type":"function","name":"getPoolIds","inputs":[{"name":"offset","type":"uint256","internalType":"uint256"},{"name":"limit","type":"uint256","internalType":"uint256"}],"outputs":[{"name":"ids","type":"bytes32[]","internalType":"bytes32[]"}],"stateMutability":"view"},{"type":"function","name":"getTokens","inputs":[{"name":"poolId","type":"bytes32","internalType":"bytes32"}],"outputs":[{"name":"tokens","type":"address[]","internalType":"address[]"}],"stateMutability":"view"},{"type":"function","name":"maverickV2SwapCallback","inputs":[{"name":"tokenIn","type":"address","internalType":"contract IERC20"},{"name":"amountIn","type":"uint256","internalType":"uint256"},{"name":"","type":"uint256","internalType":"uint256"},{"name":"data","type":"bytes","internalType":"bytes"}],"outputs":[],"stateMutability":"nonpayable"},{"type":"function","name":"price","inputs":[{"name":"poolId","type":"bytes32","internalType":"bytes32"},{"name":"sellToken","type":"address","internalType":"address"},{"name":"","type":"address","internalType":"address"},{"name":"specifiedAmounts","type":"uint256[]","internalType":"uint256[]"}],"outputs":[{"name":"calculatedPrices","type":"tuple[]","internalType":"struct ISwapAdapterTypes.Fraction[]","components":[{"name":"numerator","type":"uint256","internalType":"uint256"},{"name":"denominator","type":"uint256","internalType":"uint256"}]}],"stateMutability":"nonpayable"},{"type":"function","name":"priceAt","inputs":[{"name":"pool","type":"address","internalType":"contract IMaverickV2Pool"},{"name":"sellToken","type":"address","internalType":"address"},{"name":"sellAmount","type":"uint256","internalType":"uint256"}],"outputs":[{"name":"calculatedPrice","type":"tuple","internalType":"struct ISwapAdapterTypes.Fraction","components":[{"name":"numerator","type":"uint256","internalType":"uint256"},{"name":"denominator","type":"uint256","internalType":"uint256"}]}],"stateMutability":"nonpayable"},{"type":"function","name":"quoter","inputs":[],"outputs":[{"name":"","type":"address","internalType":"contract IMaverickV2Quoter"}],"stateMutability":"view"},{"type":"function","name":"swap","inputs":[{"name":"poolId","type":"bytes32","internalType":"bytes32"},{"name":"sellToken","type":"address","internalType":"address"},{"name":"","type":"address","internalType":"address"},{"name":"side","type":"uint8","internalType":"enum ISwapAdapterTypes.OrderSide"},{"name":"specifiedAmount","type":"uint256","internalType":"uint256"}],"outputs":[{"name":"trade","type":"tuple","internalType":"struct ISwapAdapterTypes.Trade","components":[{"name":"calculatedAmount","type":"uint256","internalType":"uint256"},{"name":"gasUsed","type":"uint256","internalType":"uint256"},{"name":"price","type":"tuple","internalType":"struct ISwapAdapterTypes.Fraction","components":[{"name":"numerator","type":"uint256","internalType":"uint256"},{"name":"denominator","type":"uint256","internalType":"uint256"}]}]}],"stateMutability":"nonpayable"},{"type":"error","name":"AddressEmptyCode","inputs":[{"name":"target","type":"address","internalType":"address"}]},{"type":"error","name":"FailedCall","inputs":[]},{"type":"error","name":"InsufficientBalance","inputs":[{"name":"balance","type":"uint256","internalType":"uint256"},{"name":"needed","type":"uint256","internalType":"uint256"}]},{"type":"error","name":"LimitExceeded","inputs":[{"name":"limit","type":"uint256","internalType":"uint256"}]},{"type":"error","name":"NotImplemented","inputs":[{"name":"reason","type":"string","internalType":"string"}]},{"type":"error","name":"SafeERC20FailedOperation","inputs":[{"name":"token","type":"address","internalType":"address"}]},{"type":"error","name":"Unavailable","inputs":[{"name":"reason","type":"string","internalType":"string"}]}],"bytecode":{"object":"0x60c03461009a57601f61138538819003918201601f19168301916001600160401b0383118484101761009e57808492604094855283398101031261009a57610052602061004b836100b2565b92016100b2565b6001600160a01b039182166080521660a0526040516112be90816100c78239608051818181610233015281816105ef01526108ac015260a0518181816101ef0152610db90152f35b5f80fd5b634e487b7160e01b5f52604160045260245ffd5b51906001600160a01b038216820361009a5756fe6080604052600436101561001a575b3615610018575f80fd5b005b5f3560e01c8063212dd07014610a4e57806323eeca011461086b57806348bd7dfd146107a557806367ca7c91146105715780638307c6551461050b578063a9270fbe146103e4578063aad6e48814610262578063c45a01551461021e578063c6bbd5a7146101da5763ecbbc0330361000e57346101d65760203660031901126101d6576040516100ab606082610b39565b6002815260208101604036823760043560601c60405162fc63d160e41b8152602081600481855afa9182156101ae576004926020925f916101b9575b506001600160a01b03166100fa86610ede565b52604051635f64b55b60e01b815292839182905afa9081156101ae575f9161017f575b509091906001600160a01b031661013382610eeb565b52604051918291602083019060208452518091526040830191905f5b81811061015d575050500390f35b82516001600160a01b031684528594506020938401939092019160010161014f565b6101a1915060203d6020116101a7575b6101998183610b39565b810190610b8b565b5f61011d565b503d61018f565b6040513d5f823e3d90fd5b6101d09150833d85116101a7576101998183610b39565b5f6100e7565b5f80fd5b346101d6575f3660031901126101d6576040517f00000000000000000000000000000000000000000000000000000000000000006001600160a01b03168152602090f35b346101d6575f3660031901126101d6576040517f00000000000000000000000000000000000000000000000000000000000000006001600160a01b03168152602090f35b346101d65760803660031901126101d65761027b610a9b565b610283610ab1565b5060643567ffffffffffffffff81116101d657366023820112156101d6578060040135906102b082610b5b565b916102be6040519384610b39565b8083526024602084019160051b830101913683116101d657602401905b8282106103d4575050508051916102f183610b5b565b926102ff6040519485610b39565b80845261030e601f1991610b5b565b015f5b8181106103b157505060043560601c905f5b8351811015610360578061034461033c60019387610efb565b518486610ceb565b61034e8288610efb565b526103598187610efb565b5001610323565b846040518091602082016020835281518091526020604084019201905f5b81811061038c575050500390f35b825180518552602090810151818601528695506040909401939092019160010161037e565b6020906040516103c081610b01565b5f81525f8382015282828801015201610311565b81358152602091820191016102db565b346101d65760046101206103f736610ac7565b9160409391935194858092631865c57d60e01b825260601c5afa9283156101ae575f936104da575b506040519261042f606085610b39565b600284526020840192604036853781516020909201516001600160801b03908116939216916001600160a01b03908116911610156104bf5761047084610ede565b5261047a83610eeb565b52905b604051918291602083019060208452518091526040830191905f5b8181106104a6575050500390f35b8251845285945060209384019390920191600101610498565b906104c984610ede565b526104d383610eeb565b529061047d565b6104fd9193506101203d8111610504575b6104f58183610b39565b810190610bd9565b918361041f565b503d6104eb565b346101d65760a03660031901126101d657610524610a9b565b61052c610ab1565b5060643560028110156101d65760809161054c9160843591600435610f0f565b6020604080519280518452828101518385015201518051604084015201516060820152f35b346101d65760803660031901126101d6576004356001600160a01b038116908190036101d65760643567ffffffffffffffff81116101d657366023820112156101d657806004013567ffffffffffffffff81116101d65781013660248201116101d6576040516315e3ab2960e21b81523360048201526020816024817f00000000000000000000000000000000000000000000000000000000000000006001600160a01b03165afa9081156101ae575f9161076b575b501561073557602090829003126101d6576024013560018060a01b0381168091036101d6575f809160405160208101916323b872dd60e01b83526024820152336044820152602435606482015260648152610683608482610b39565b519082855af13d15610729573d67ffffffffffffffff8111610715576106cb91604051916106bb6020601f19601f8401160184610b39565b82523d5f602084013e5b8361122a565b80519081151591826106f2575b50506106e057005b635274afe760e01b5f5260045260245ffd5b81925090602091810103126101d657602061070d9101610bcc565b1582806106d8565b634e487b7160e01b5f52604160045260245ffd5b6106cb906060906106c5565b60405162461bcd60e51b815260206004820152600e60248201526d139bdd119858dd1bdc9e541bdbdb60921b6044820152606490fd5b90506020813d60201161079d575b8161078660209383610b39565b810103126101d65761079790610bcc565b84610627565b3d9150610779565b346101d6576107b336610ac7565b5050506040516107c4608082610b39565b6003815260208101606036823760016107dc83610ede565b5260026107e883610eeb565b528151600210156108575760036060830152604051906020820192602083525180935260408201905f935b8085106108205783830384f35b9091825190600a8210156108435760208160019382935201930194019390610813565b634e487b7160e01b5f52602160045260245ffd5b634e487b7160e01b5f52603260045260245ffd5b346101d65760403660031901126101d6576004356024358101808211610a3a5760405163b4b9d1f160e01b8152600481019290925260248201525f816044817f00000000000000000000000000000000000000000000000000000000000000006001600160a01b03165afa9081156101ae575f91610998575b5080519061090a6108f483610b5b565b926109026040519485610b39565b808452610b5b565b602083019190601f19013683375f5b8151811015610953576001906bffffffffffffffffffffffff1961093d8285610efb565b5160601b1661094c8287610efb565b5201610919565b505090604051918291602083019060208452518091526040830191905f5b81811061097f575050500390f35b8251845285945060209384019390920191600101610971565b90503d805f833e6109a98183610b39565b8101906020818303126101d65780519067ffffffffffffffff82116101d657019080601f830112156101d6578151906109e182610b5b565b926109ef6040519485610b39565b82845260208085019360051b8201019182116101d657602001915b818310610a1a57505050816108e4565b82516001600160a01b03811681036101d657815260209283019201610a0a565b634e487b7160e01b5f52601160045260245ffd5b346101d65760603660031901126101d6576004356001600160a01b03811681036101d657610a89604091610a80610a9b565b60443591610ceb565b60208251918051835201516020820152f35b602435906001600160a01b03821682036101d657565b604435906001600160a01b03821682036101d657565b60609060031901126101d657600435906024356001600160a01b03811681036101d657906044356001600160a01b03811681036101d65790565b6040810190811067ffffffffffffffff82111761071557604052565b6080810190811067ffffffffffffffff82111761071557604052565b90601f8019910116810190811067ffffffffffffffff82111761071557604052565b67ffffffffffffffff81116107155760051b60200190565b60405190610b8082610b01565b5f6020838281520152565b908160209103126101d657516001600160a01b03811681036101d65790565b51906001600160801b03821682036101d657565b51908160070b82036101d657565b519081151582036101d657565b90816101209103126101d65760405190610120820182811067ffffffffffffffff82111761071557604052610c0d81610baa565b8252610c1b60208201610baa565b6020830152610c2c60408201610bbe565b6040830152610c3d60608201610bbe565b6060830152608081015164ffffffffff811681036101d657608083015260a08101518060030b81036101d65760a0830152610c7a60c08201610bcc565b60c083015260e08101519063ffffffff821682036101d6576101009160e0840152015160ff811681036101d65761010082015290565b60030b6063190190637fffffff198212637fffffff831317610a3a57565b60030b60640190637fffffff8213637fffffff19831217610a3a57565b919091610cf6610b73565b5060405162fc63d160e41b81526001600160a01b03919091169290602081600481875afa9081156101ae575f91610ebf575b506001600160a01b039182169116148015610e5c57604051631865c57d60e01b815261012081600481875afa80156101ae5760a0610d7b916001600160801b03935f91610e3d575b50015160030b610cce565b925b604051946349b5931160e01b8652600486015216602484015260448301525f606483015260030b608482015260608160a4815f60018060a01b037f0000000000000000000000000000000000000000000000000000000000000000165af19081156101ae575f905f92610e03575b5060405191610df983610b01565b8252602082015290565b9150506060813d606011610e35575b81610e1f60609383610b39565b810103126101d65760208151910151905f610deb565b3d9150610e12565b610e5691506101203d8111610504576104f58183610b39565b5f610d70565b604051631865c57d60e01b815261012081600481875afa80156101ae5760a0610e9a916001600160801b03935f91610ea0575b50015160030b610cb0565b92610d7d565b610eb991506101203d8111610504576104f58183610b39565b5f610e8f565b610ed8915060203d6020116101a7576101998183610b39565b5f610d28565b8051156108575760200190565b8051600110156108575760400190565b80518210156108575760209160051b010190565b9290604051936060850185811067ffffffffffffffff821117610715576040525f85525f6020860152604051610f4481610b01565b5f81525f602082015260408601528483156111a7575060601c9060405162fc63d160e41b8152602081600481865afa9081156101ae575f91611188575b506001600160a01b03828116911614801561114c57604051631865c57d60e01b815261012081600481875afa9081156101ae57610fcc9160a0915f91610e3d5750015160030b610cce565b905b5a956002811015610843576001036110a6579360409161103b95835192610ff484610b1d565b8352602083015260018383015260030b6060820152815190336020830152602082526110208383610b39565b8251633eece7db60e01b8152958692839233600485016111c6565b03815f865af19182156101ae5761105c935f93611074575b50828652610ceb565b60408301525b5a8103908111610a3a57602082015290565b61109791935060403d60401161109f575b61108f8183610b39565b8101906111b0565b50915f611053565b503d611085565b6040906111029594928251916110bb83610b1d565b86835260208301525f8383015260030b6060820152815190336020830152602082526110e78383610b39565b8251633eece7db60e01b8152968792839233600485016111c6565b03815f855af180156101ae57611121945f9161112b575b508652610ceb565b6040830152611062565b611144915060403d60401161109f5761108f8183610b39565b90505f611119565b604051631865c57d60e01b815261012081600481875afa9081156101ae576111829160a0915f91610ea05750015160030b610cb0565b90610fce565b6111a1915060203d6020116101a7576101998183610b39565b5f610f81565b94505050505090565b91908260409103126101d6576020825192015190565b9192606060e09460209360018060a01b0316855280518486015283810151151560408601526040810151151582860152015160030b608084015260c060a084015280519182918260c0860152018484015e5f828201840152601f01601f1916010190565b9061124e575080511561123f57805190602001fd5b63d6bda27560e01b5f5260045ffd5b8151158061127f575b61125f575090565b639996b31560e01b5f9081526001600160a01b0391909116600452602490fd5b50803b1561125756fea2646970667358221220f3ef5375aaed25576a473447336d380f40555b4f9090d9d18f46219133f4367064736f6c634300081b0033","linkReferences":{}},"methodIdentifiers":{"factory()":"c45a0155","getCapabilities(bytes32,address,address)":"48bd7dfd","getLimits(bytes32,address,address)":"a9270fbe","getPoolIds(uint256,uint256)":"23eeca01","getTokens(bytes32)":"ecbbc033","maverickV2SwapCallback(address,uint256,uint256,bytes)":"67ca7c91","price(bytes32,address,address,uint256[])":"aad6e488","priceAt(address,address,uint256)":"212dd070","quoter()":"c6bbd5a7","swap(bytes32,address,address,uint8,uint256)":"8307c655"},"id":60}