{"abi":[{"type":"function","name":"getCapabilities","inputs":[{"name":"poolId","type":"bytes32","internalType":"bytes32"},{"name":"sellToken","type":"address","internalType":"address"},{"name":"buyToken","type":"address","internalType":"address"}],"outputs":[{"name":"capabilities","type":"uint8[]","internalType":"enum ISwapAdapterTypes.Capability[]"}],"stateMutability":"nonpayable"},{"type":"function","name":"getLimits","inputs":[{"name":"poolId","type":"bytes32","internalType":"bytes32"},{"name":"sellToken","type":"address","internalType":"address"},{"name":"buyToken","type":"address","internalType":"address"}],"outputs":[{"name":"limits","type":"uint256[]","internalType":"uint256[]"}],"stateMutability":"nonpayable"},{"type":"function","name":"getPoolIds","inputs":[{"name":"offset","type":"uint256","internalType":"uint256"},{"name":"limit","type":"uint256","internalType":"uint256"}],"outputs":[{"name":"ids","type":"bytes32[]","internalType":"bytes32[]"}],"stateMutability":"nonpayable"},{"type":"function","name":"getTokens","inputs":[{"name":"poolId","type":"bytes32","internalType":"bytes32"}],"outputs":[{"name":"tokens","type":"address[]","internalType":"address[]"}],"stateMutability":"nonpayable"},{"type":"function","name":"price","inputs":[{"name":"_poolId","type":"bytes32","internalType":"bytes32"},{"name":"_sellToken","type":"address","internalType":"address"},{"name":"_buyToken","type":"address","internalType":"address"},{"name":"_specifiedAmounts","type":"uint256[]","internalType":"uint256[]"}],"outputs":[{"name":"_prices","type":"tuple[]","internalType":"struct ISwapAdapterTypes.Fraction[]","components":[{"name":"numerator","type":"uint256","internalType":"uint256"},{"name":"denominator","type":"uint256","internalType":"uint256"}]}],"stateMutability":"view"},{"type":"function","name":"swap","inputs":[{"name":"poolId","type":"bytes32","internalType":"bytes32"},{"name":"sellToken","type":"address","internalType":"address"},{"name":"buyToken","type":"address","internalType":"address"},{"name":"side","type":"uint8","internalType":"enum ISwapAdapterTypes.OrderSide"},{"name":"specifiedAmount","type":"uint256","internalType":"uint256"}],"outputs":[{"name":"trade","type":"tuple","internalType":"struct ISwapAdapterTypes.Trade","components":[{"name":"calculatedAmount","type":"uint256","internalType":"uint256"},{"name":"gasUsed","type":"uint256","internalType":"uint256"},{"name":"price","type":"tuple","internalType":"struct ISwapAdapterTypes.Fraction","components":[{"name":"numerator","type":"uint256","internalType":"uint256"},{"name":"denominator","type":"uint256","internalType":"uint256"}]}]}],"stateMutability":"nonpayable"},{"type":"error","name":"LimitExceeded","inputs":[{"name":"limit","type":"uint256","internalType":"uint256"}]},{"type":"error","name":"NotImplemented","inputs":[{"name":"reason","type":"string","internalType":"string"}]},{"type":"error","name":"Unavailable","inputs":[{"name":"reason","type":"string","internalType":"string"}]}],"bytecode":{"object":"0x60808060405234601557610431908161001a8239f35b5f80fdfe6080806040526004361015610012575f80fd5b5f3560e01c90816323eeca01146103415750806348bd7dfd146102de5780638307c65514610219578063a9270fbe146101c2578063aad6e488146100b95763ecbbc0331461005e575f80fd5b346100b55760203660031901126100b557604051631d04569d60e21b815260206004820152601d60248201527f54656d706c61746553776170416461707465722e676574546f6b656e730000006044820152606490fd5b5f80fd5b346100b55760803660031901126100b5576100d2610395565b506100db6103ab565b5060643567ffffffffffffffff81116100b557366023820112156100b55780600401359067ffffffffffffffff82116101ae578160051b91604051601f19603f85011681019080821067ffffffffffffffff8311176101ae5760249260209260405281520192820101903682116100b557602401915b81831061019e57604051631d04569d60e21b815260206004820152601960248201527f54656d706c61746553776170416461707465722e7072696365000000000000006044820152606490fd5b8235815260209283019201610151565b634e487b7160e01b5f52604160045260245ffd5b346100b5576101d0366103c1565b5050604051631d04569d60e21b815260206004820152601d60248201527f54656d706c61746553776170416461707465722e6765744c696d697473000000604482015260649150fd5b346100b55760a03660031901126100b557610232610395565b5061023b6103ab565b50600260643510156100b5576040516060810181811067ffffffffffffffff8211176101ae576040525f81525f602082015260405190604082019082821067ffffffffffffffff8311176101ae5760409182525f83525f602084015201526064604051631d04569d60e21b815260206004820152601860248201527f54656d706c61746553776170416461707465722e7377617000000000000000006044820152fd5b346100b5576102ec366103c1565b5050604051631d04569d60e21b815260206004820152602360248201527f54656d706c61746553776170416461707465722e6765744361706162696c697460448201526269657360e81b606482015260849150fd5b346100b55760403660031901126100b557631d04569d60e21b815260206004820152601e60248201527f54656d706c61746553776170416461707465722e676574506f6f6c49647300006044820152606490fd5b602435906001600160a01b03821682036100b557565b604435906001600160a01b03821682036100b557565b60609060031901126100b557600435906024356001600160a01b03811681036100b557906044356001600160a01b03811681036100b5579056fea26469706673582212206492349fa976084ab1406cd4e54307415f37767e6ab8298dd7f59cbce6fd7c3c64736f6c634300081b0033","linkReferences":{}},"methodIdentifiers":{"getCapabilities(bytes32,address,address)":"48bd7dfd","getLimits(bytes32,address,address)":"a9270fbe","getPoolIds(uint256,uint256)":"23eeca01","getTokens(bytes32)":"ecbbc033","price(bytes32,address,address,uint256[])":"aad6e488","swap(bytes32,address,address,uint8,uint256)":"8307c655"},"id":63}