{"abi":[{"type":"constructor","inputs":[{"name":"_asset","type":"address","internalType":"contract IERC20"}],"stateMutability":"nonpayable"},{"type":"function","name":"allowance","inputs":[{"name":"owner","type":"address","internalType":"address"},{"name":"spender","type":"address","internalType":"address"}],"outputs":[{"name":"","type":"uint256","internalType":"uint256"}],"stateMutability":"view"},{"type":"function","name":"approve","inputs":[{"name":"spender","type":"address","internalType":"address"},{"name":"value","type":"uint256","internalType":"uint256"}],"outputs":[{"name":"","type":"bool","internalType":"bool"}],"stateMutability":"nonpayable"},{"type":"function","name":"asset","inputs":[],"outputs":[{"name":"","type":"address","internalType":"address"}],"stateMutability":"view"},{"type":"function","name":"balanceOf","inputs":[{"name":"account","type":"address","internalType":"address"}],"outputs":[{"name":"","type":"uint256","internalType":"uint256"}],"stateMutability":"view"},{"type":"function","name":"convertToAssets","inputs":[{"name":"shares","type":"uint256","internalType":"uint256"}],"outputs":[{"name":"","type":"uint256","internalType":"uint256"}],"stateMutability":"view"},{"type":"function","name":"convertToShares","inputs":[{"name":"assets","type":"uint256","internalType":"uint256"}],"outputs":[{"name":"","type":"uint256","internalType":"uint256"}],"stateMutability":"view"},{"type":"function","name":"decimals","inputs":[],"outputs":[{"name":"","type":"uint8","internalType":"uint8"}],"stateMutability":"view"},{"type":"function","name":"deposit","inputs":[{"name":"assets","type":"uint256","internalType":"uint256"},{"name":"receiver","type":"address","internalType":"address"}],"outputs":[{"name":"","type":"uint256","internalType":"uint256"}],"stateMutability":"nonpayable"},{"type":"function","name":"isBufferInitialized","inputs":[],"outputs":[{"name":"","type":"bool","internalType":"bool"}],"stateMutability":"view"},{"type":"function","name":"maxDeposit","inputs":[{"name":"","type":"address","internalType":"address"}],"outputs":[{"name":"","type":"uint256","internalType":"uint256"}],"stateMutability":"view"},{"type":"function","name":"maxMint","inputs":[{"name":"","type":"address","internalType":"address"}],"outputs":[{"name":"","type":"uint256","internalType":"uint256"}],"stateMutability":"view"},{"type":"function","name":"maxRedeem","inputs":[{"name":"owner","type":"address","internalType":"address"}],"outputs":[{"name":"","type":"uint256","internalType":"uint256"}],"stateMutability":"view"},{"type":"function","name":"maxWithdraw","inputs":[{"name":"owner","type":"address","internalType":"address"}],"outputs":[{"name":"","type":"uint256","internalType":"uint256"}],"stateMutability":"view"},{"type":"function","name":"mint","inputs":[{"name":"shares","type":"uint256","internalType":"uint256"},{"name":"receiver","type":"address","internalType":"address"}],"outputs":[{"name":"","type":"uint256","internalType":"uint256"}],"stateMutability":"nonpayable"},{"type":"function","name":"name","inputs":[],"outputs":[{"name":"","type":"string","internalType":"string"}],"stateMutability":"view"},{"type":"function","name":"previewDeposit","inputs":[{"name":"assets","type":"uint256","internalType":"uint256"}],"outputs":[{"name":"","type":"uint256","internalType":"uint256"}],"stateMutability":"view"},{"type":"function","name":"previewMint","inputs":[{"name":"shares","type":"uint256","internalType":"uint256"}],"outputs":[{"name":"","type":"uint256","internalType":"uint256"}],"stateMutability":"view"},{"type":"function","name":"previewRedeem","inputs":[{"name":"shares","type":"uint256","internalType":"uint256"}],"outputs":[{"name":"","type":"uint256","internalType":"uint256"}],"stateMutability":"view"},{"type":"function","name":"previewWithdraw","inputs":[{"name":"assets","type":"uint256","internalType":"uint256"}],"outputs":[{"name":"","type":"uint256","internalType":"uint256"}],"stateMutability":"view"},{"type":"function","name":"redeem","inputs":[{"name":"shares","type":"uint256","internalType":"uint256"},{"name":"receiver","type":"address","internalType":"address"},{"name":"owner","type":"address","internalType":"address"}],"outputs":[{"name":"","type":"uint256","internalType":"uint256"}],"stateMutability":"nonpayable"},{"type":"function","name":"symbol","inputs":[],"outputs":[{"name":"","type":"string","internalType":"string"}],"stateMutability":"view"},{"type":"function","name":"totalAssets","inputs":[],"outputs":[{"name":"","type":"uint256","internalType":"uint256"}],"stateMutability":"view"},{"type":"function","name":"totalSupply","inputs":[],"outputs":[{"name":"","type":"uint256","internalType":"uint256"}],"stateMutability":"view"},{"type":"function","name":"transfer","inputs":[{"name":"to","type":"address","internalType":"address"},{"name":"value","type":"uint256","internalType":"uint256"}],"outputs":[{"name":"","type":"bool","internalType":"bool"}],"stateMutability":"nonpayable"},{"type":"function","name":"transferFrom","inputs":[{"name":"from","type":"address","internalType":"address"},{"name":"to","type":"address","internalType":"address"},{"name":"value","type":"uint256","internalType":"uint256"}],"outputs":[{"name":"","type":"bool","internalType":"bool"}],"stateMutability":"nonpayable"},{"type":"function","name":"withdraw","inputs":[{"name":"assets","type":"uint256","internalType":"uint256"},{"name":"receiver","type":"address","internalType":"address"},{"name":"owner","type":"address","internalType":"address"}],"outputs":[{"name":"","type":"uint256","internalType":"uint256"}],"stateMutability":"nonpayable"},{"type":"event","name":"Approval","inputs":[{"name":"owner","type":"address","indexed":true,"internalType":"address"},{"name":"spender","type":"address","indexed":true,"internalType":"address"},{"name":"value","type":"uint256","indexed":false,"internalType":"uint256"}],"anonymous":false},{"type":"event","name":"Deposit","inputs":[{"name":"sender","type":"address","indexed":true,"internalType":"address"},{"name":"owner","type":"address","indexed":true,"internalType":"address"},{"name":"assets","type":"uint256","indexed":false,"internalType":"uint256"},{"name":"shares","type":"uint256","indexed":false,"internalType":"uint256"}],"anonymous":false},{"type":"event","name":"Transfer","inputs":[{"name":"from","type":"address","indexed":true,"internalType":"address"},{"name":"to","type":"address","indexed":true,"internalType":"address"},{"name":"value","type":"uint256","indexed":false,"internalType":"uint256"}],"anonymous":false},{"type":"event","name":"Withdraw","inputs":[{"name":"sender","type":"address","indexed":true,"internalType":"address"},{"name":"receiver","type":"address","indexed":true,"internalType":"address"},{"name":"owner","type":"address","indexed":true,"internalType":"address"},{"name":"assets","type":"uint256","indexed":false,"internalType":"uint256"},{"name":"shares","type":"uint256","indexed":false,"internalType":"uint256"}],"anonymous":false},{"type":"error","name":"AddressEmptyCode","inputs":[{"name":"target","type":"address","internalType":"address"}]},{"type":"error","name":"ERC20InsufficientAllowance","inputs":[{"name":"spender","type":"address","internalType":"address"},{"name":"allowance","type":"uint256","internalType":"uint256"},{"name":"needed","type":"uint256","internalType":"uint256"}]},{"type":"error","name":"ERC20InsufficientBalance","inputs":[{"name":"sender","type":"address","internalType":"address"},{"name":"balance","type":"uint256","internalType":"uint256"},{"name":"needed","type":"uint256","internalType":"uint256"}]},{"type":"error","name":"ERC20InvalidApprover","inputs":[{"name":"approver","type":"address","internalType":"address"}]},{"type":"error","name":"ERC20InvalidReceiver","inputs":[{"name":"receiver","type":"address","internalType":"address"}]},{"type":"error","name":"ERC20InvalidSender","inputs":[{"name":"sender","type":"address","internalType":"address"}]},{"type":"error","name":"ERC20InvalidSpender","inputs":[{"name":"spender","type":"address","internalType":"address"}]},{"type":"error","name":"ERC4626ExceededMaxDeposit","inputs":[{"name":"receiver","type":"address","internalType":"address"},{"name":"assets","type":"uint256","internalType":"uint256"},{"name":"max","type":"uint256","internalType":"uint256"}]},{"type":"error","name":"ERC4626ExceededMaxMint","inputs":[{"name":"receiver","type":"address","internalType":"address"},{"name":"shares","type":"uint256","internalType":"uint256"},{"name":"max","type":"uint256","internalType":"uint256"}]},{"type":"error","name":"ERC4626ExceededMaxRedeem","inputs":[{"name":"owner","type":"address","internalType":"address"},{"name":"shares","type":"uint256","internalType":"uint256"},{"name":"max","type":"uint256","internalType":"uint256"}]},{"type":"error","name":"ERC4626ExceededMaxWithdraw","inputs":[{"name":"owner","type":"address","internalType":"address"},{"name":"assets","type":"uint256","internalType":"uint256"},{"name":"max","type":"uint256","internalType":"uint256"}]},{"type":"error","name":"FailedCall","inputs":[]},{"type":"error","name":"InsufficientBalance","inputs":[{"name":"balance","type":"uint256","internalType":"uint256"},{"name":"needed","type":"uint256","internalType":"uint256"}]},{"type":"error","name":"SafeERC20FailedOperation","inputs":[{"name":"token","type":"address","internalType":"address"}]}],"bytecode":{"object":"0x60c0806040523461036f576020816113eb803803809161001f8285610373565b83398101031261036f57516001600160a01b038116810361036f5760409081519161004a8184610373565b600b83526a5374616b6564205553444360a81b602084015280519161006f8284610373565b6005835264735553444360d81b602084015283516001600160401b03811161028057600354600181811c91168015610365575b602082101461026257601f8111610302575b50602094601f821160011461029f579481929394955f92610294575b50508160011b915f199060031b1c1916176003555b82516001600160401b03811161028057600454600181811c91168015610276575b602082101461026257601f81116101ff575b506020601f821160011461019c57819293945f92610191575b50508160011b915f199060031b1c1916176004555b61014f81610396565b9015610189575b60a05260805251610fa2908161044982396080518181816104eb015281816108880152610b81015260a0518161052e0152f35b506012610156565b015190505f80610131565b601f1982169060045f52805f20915f5b8181106101e7575095836001959697106101cf575b505050811b01600455610146565b01515f1960f88460031b161c191690555f80806101c1565b9192602060018192868b0151815501940192016101ac565b60045f527f8a35acfbc15ff81a39ae7d344fd709f28e8600b4aa8c65c6b64bfe7fe36bd19b601f830160051c81019160208410610258575b601f0160051c01905b81811061024d5750610118565b5f8155600101610240565b9091508190610237565b634e487b7160e01b5f52602260045260245ffd5b90607f1690610106565b634e487b7160e01b5f52604160045260245ffd5b015190505f806100d0565b601f1982169560035f52805f20915f5b8881106102ea575083600195969798106102d2575b505050811b016003556100e5565b01515f1960f88460031b161c191690555f80806102c4565b919260206001819286850151815501940192016102af565b60035f527fc2575a0e9e593c00f959f8c92f12db2869c3395a3b0502d05e2516446f71f85b601f830160051c8101916020841061035b575b601f0160051c01905b81811061035057506100b4565b5f8155600101610343565b909150819061033a565b90607f16906100a2565b5f80fd5b601f909101601f19168101906001600160401b0382119082101761028057604052565b5f8091604051602081019063313ce56760e01b8252600481526103ba602482610373565b51916001600160a01b03165afa3d15610440573d906001600160401b03821161028057604051916103f5601f8201601f191660200184610373565b82523d5f602084013e5b80610434575b610411575b505f905f90565b60208180518101031261036f576020015160ff811161040a579060ff6001921690565b50602081511015610405565b6060906103ff56fe60806040526004361015610011575f80fd5b5f3560e01c806301e1d1141461074b57806306fdde031461069057806307a2d13a1461022e578063095ea7b3146105e85780630a28a477146105ca57806318160ddd146105ad57806323b872dd14610575578063313ce5671461051a57806338d52e0f146104d6578063402d267d146102335780634cdad506146104b85780636e553f651461048557806370a08231146101d357806394bf804d1461045257806395d89b411461034e578063a9059cbb1461031d578063b3d7f6b9146102ff578063b460af94146102a4578063ba08765214610238578063c63d75b614610233578063c6e6f5921461022e578063ce96cb771461020b578063d905777e146101d3578063dc0a9929146101b1578063dd62ed3e146101615763ef8b30f714610137575f80fd5b3461015d57602036600319011261015d576020610155600435610956565b604051908152f35b5f80fd5b3461015d57604036600319011261015d5761017a6107ac565b6101826107c2565b6001600160a01b039182165f908152600160209081526040808320949093168252928352819020549051908152f35b3461015d575f36600319011261015d57602060ff600554166040519015158152f35b3461015d57602036600319011261015d5760206101556101f16107ac565b6001600160a01b03165f9081526020819052604090205490565b3461015d57602036600319011261015d5760206101556102296107ac565b6108fd565b61078f565b6107d8565b3461015d57610246366107fd565b90916102628260018060a01b03165f525f60205260405f205490565b80821161028357508060209361027a61015593610ae0565b93849133610c31565b91632e52afbb60e21b5f5260018060a01b031660045260245260445260645ffd5b3461015d576102b2366107fd565b90916102bd826108fd565b8082116102de5750602092816102d561015593610928565b93849233610c31565b91633fa733bb60e21b5f5260018060a01b031660045260245260445260645ffd5b3461015d57602036600319011261015d576020610155600435610b0d565b3461015d57604036600319011261015d576103436103396107ac565b6024359033610a23565b602060405160018152f35b3461015d575f36600319011261015d576040515f6004548060011c90600181168015610448575b6020831081146104345782855290811561041057506001146103b2575b6103ae836103a281850382610837565b60405191829182610765565b0390f35b91905060045f527f8a35acfbc15ff81a39ae7d344fd709f28e8600b4aa8c65c6b64bfe7fe36bd19b915f905b8082106103f6575090915081016020016103a2610392565b9192600181602092548385880101520191019092916103de565b60ff191660208086019190915291151560051b840190910191506103a29050610392565b634e487b7160e01b5f52602260045260245ffd5b91607f1691610375565b3461015d57604036600319011261015d5760206004356101556104736107c2565b9161047d81610b0d565b809333610b3b565b3461015d57604036600319011261015d5760206004356101556104a66107c2565b6104af83610956565b92839133610b3b565b3461015d57602036600319011261015d576020610155600435610ae0565b3461015d575f36600319011261015d576040517f00000000000000000000000000000000000000000000000000000000000000006001600160a01b03168152602090f35b3461015d575f36600319011261015d5760ff7f00000000000000000000000000000000000000000000000000000000000000001660ff811161056157602090604051908152f35b634e487b7160e01b5f52601160045260245ffd5b3461015d57606036600319011261015d576103436105916107ac565b6105996107c2565b604435916105a8833383610983565b610a23565b3461015d575f36600319011261015d576020600254604051908152f35b3461015d57602036600319011261015d576020610155600435610928565b3461015d57604036600319011261015d576106016107ac565b60243590331561067d576001600160a01b031690811561066a57335f52600160205260405f20825f526020528060405f20556040519081527f8c5be1e5ebec7d5bd14f71427d1e84f3dd0314c0f7b2291e5b200ac8c7c3b92560203392a3602060405160018152f35b634a1406b160e11b5f525f60045260245ffd5b63e602df0560e01b5f525f60045260245ffd5b3461015d575f36600319011261015d576040515f6003548060011c90600181168015610741575b6020831081146104345782855290811561041057506001146106e3576103ae836103a281850382610837565b91905060035f527fc2575a0e9e593c00f959f8c92f12db2869c3395a3b0502d05e2516446f71f85b915f905b808210610727575090915081016020016103a2610392565b91926001816020925483858801015201910190929161070f565b91607f16916106b7565b3461015d575f36600319011261015d57602061015561086d565b602060409281835280519182918282860152018484015e5f828201840152601f01601f1916010190565b3461015d57602036600319011261015d5760206040516004358152f35b600435906001600160a01b038216820361015d57565b602435906001600160a01b038216820361015d57565b3461015d57602036600319011261015d576107f16107ac565b5060206040515f198152f35b606090600319011261015d57600435906024356001600160a01b038116810361015d57906044356001600160a01b038116810361015d5790565b90601f8019910116810190811067ffffffffffffffff82111761085957604052565b634e487b7160e01b5f52604160045260245ffd5b6040516370a0823160e01b81523060048201526020816024817f00000000000000000000000000000000000000000000000000000000000000006001600160a01b03165afa9081156108f2575f916108c3575090565b90506020813d6020116108ea575b816108de60209383610837565b8101031261015d575190565b3d91506108d1565b6040513d5f823e3d90fd5b60018060a01b03165f525f60205261091860405f2054610ae0565b90565b9190820180921161056157565b60025490600182018092116105615761093f61086d565b600181018091116105615761091892600192610d44565b60025490600182018092116105615761096d61086d565b6001810180911161056157610918925f92610d44565b6001600160a01b039081165f81815260016020818152604080842095871684529490529290205493929184016109ba575b50505050565b828410610a0057801561067d576001600160a01b0382161561066a575f52600160205260405f209060018060a01b03165f5260205260405f20910390555f8080806109b4565b508290637dc7a0d960e11b5f5260018060a01b031660045260245260445260645ffd5b6001600160a01b0316908115610acd576001600160a01b0316918215610aba57815f525f60205260405f2054818110610aa157817fddf252ad1be2c89b69c2b068fc378daa952ba7f163c4a11628f55a4df523b3ef92602092855f525f84520360405f2055845f525f825260405f20818154019055604051908152a3565b8263391434e360e21b5f5260045260245260445260645ffd5b63ec442f0560e01b5f525f60045260245ffd5b634b637e8f60e11b5f525f60045260245ffd5b610ae861086d565b9060018201809211610561576002546001810180911161056157610918925f92610d44565b610b1561086d565b906001820180921161056157600254600181018091116105615761091892600192610d44565b6040516323b872dd60e01b60208201526001600160a01b039091166024820181905230604483015260648083018590528252929190610ba590610b7f608482610837565b7f0000000000000000000000000000000000000000000000000000000000000000610e5b565b6001600160a01b0316928315610aba577fdcbc1c05240f31ff3ad067ef1ee35ce4997762752e3a095284754544f4c709d79181610be660409360025461091b565b600255855f525f602052825f20818154019055855f7fddf252ad1be2c89b69c2b068fc378daa952ba7f163c4a11628f55a4df523b3ef60208651858152a382519182526020820152a3565b6001600160a01b03808416959294908216939092918290878603610d33575b5050508415610acd57845f525f60205260405f2054818110610d1a5791816040927ffbde797d201c681b91056529119e0b02407c7bb96a4a2c75c01fc9667232c8db94885f525f60205203835f205580600254036002555f877fddf252ad1be2c89b69c2b068fc378daa952ba7f163c4a11628f55a4df523b3ef60208651858152a3825163a9059cbb60e01b60208201526001600160a01b03909616602487018190526044808801849052875295610d0d90610b7f606482610837565b82519182526020820152a4565b8563391434e360e21b5f5260045260245260445260645ffd5b610d3c92610983565b5f8181610c50565b9291610d51818386610db6565b926004811015610da2576001809116149182610d77575b5050610918925015159061091b565b9080925015610d8e57610918930915155f80610d68565b634e487b7160e01b5f52601260045260245ffd5b634e487b7160e01b5f52602160045260245ffd5b91818302915f1981850993838086109503948086039514610e4d5784831115610e2e5790829109815f0382168092046002816003021880820260020302808202600203028082026002030280820260020302808202600203028091026002030293600183805f03040190848311900302920304170290565b82610e465760125b634e487b715f526020526024601cfd5b6011610e36565b505080925015610d8e570490565b81516001600160a01b03909116915f91829160200182855af13d15610f02573d67ffffffffffffffff811161085957610eb69160405191610ea66020601f19601f8401160184610837565b82523d5f602084013e5b83610f0e565b8051908115159182610ede575b5050610ecc5750565b635274afe760e01b5f5260045260245ffd5b819250906020918101031261015d576020015180159081150361015d575f80610ec3565b610eb690606090610eb0565b90610f325750805115610f2357805190602001fd5b63d6bda27560e01b5f5260045ffd5b81511580610f63575b610f43575090565b639996b31560e01b5f9081526001600160a01b0391909116600452602490fd5b50803b15610f3b56fea264697066735822122030e578a6ab691e6efcf0de3f1efc050cfdb95d2181c5a43a9ea8a724a0678a6f64736f6c634300081b0033","linkReferences":{}},"methodIdentifiers":{"allowance(address,address)":"dd62ed3e","approve(address,uint256)":"095ea7b3","asset()":"38d52e0f","balanceOf(address)":"70a08231","convertToAssets(uint256)":"07a2d13a","convertToShares(uint256)":"c6e6f592","decimals()":"313ce567","deposit(uint256,address)":"6e553f65","isBufferInitialized()":"dc0a9929","maxDeposit(address)":"402d267d","maxMint(address)":"c63d75b6","maxRedeem(address)":"d905777e","maxWithdraw(address)":"ce96cb77","mint(uint256,address)":"94bf804d","name()":"06fdde03","previewDeposit(uint256)":"ef8b30f7","previewMint(uint256)":"b3d7f6b9","previewRedeem(uint256)":"4cdad506","previewWithdraw(uint256)":"0a28a477","redeem(uint256,address,address)":"ba087652","symbol()":"95d89b41","totalAssets()":"01e1d114","totalSupply()":"18160ddd","transfer(address,uint256)":"a9059cbb","transferFrom(address,address,uint256)":"23b872dd","withdraw(uint256,address,address)":"b460af94"},"id":81}